{
  "_format": "hh-sol-artifact-1",
  "contractName": "BorrowYourCar",
  "sourceName": "contracts/BorrowYourCar.sol",
  "abi": [
    {
      "inputs": [],
      "stateMutability": "nonpayable",
      "type": "constructor"
    },
    {
      "inputs": [
        {
          "internalType": "address",
          "name": "sender",
          "type": "address"
        },
        {
          "internalType": "uint256",
          "name": "tokenId",
          "type": "uint256"
        },
        {
          "internalType": "address",
          "name": "owner",
          "type": "address"
        }
      ],
      "name": "ERC721IncorrectOwner",
      "type": "error"
    },
    {
      "inputs": [
        {
          "internalType": "address",
          "name": "operator",
          "type": "address"
        },
        {
          "internalType": "uint256",
          "name": "tokenId",
          "type": "uint256"
        }
      ],
      "name": "ERC721InsufficientApproval",
      "type": "error"
    },
    {
      "inputs": [
        {
          "internalType": "address",
          "name": "approver",
          "type": "address"
        }
      ],
      "name": "ERC721InvalidApprover",
      "type": "error"
    },
    {
      "inputs": [
        {
          "internalType": "address",
          "name": "operator",
          "type": "address"
        }
      ],
      "name": "ERC721InvalidOperator",
      "type": "error"
    },
    {
      "inputs": [
        {
          "internalType": "address",
          "name": "owner",
          "type": "address"
        }
      ],
      "name": "ERC721InvalidOwner",
      "type": "error"
    },
    {
      "inputs": [
        {
          "internalType": "address",
          "name": "receiver",
          "type": "address"
        }
      ],
      "name": "ERC721InvalidReceiver",
      "type": "error"
    },
    {
      "inputs": [
        {
          "internalType": "address",
          "name": "sender",
          "type": "address"
        }
      ],
      "name": "ERC721InvalidSender",
      "type": "error"
    },
    {
      "inputs": [
        {
          "internalType": "uint256",
          "name": "tokenId",
          "type": "uint256"
        }
      ],
      "name": "ERC721NonexistentToken",
      "type": "error"
    },
    {
      "anonymous": false,
      "inputs": [
        {
          "indexed": true,
          "internalType": "address",
          "name": "owner",
          "type": "address"
        },
        {
          "indexed": true,
          "internalType": "address",
          "name": "approved",
          "type": "address"
        },
        {
          "indexed": true,
          "internalType": "uint256",
          "name": "tokenId",
          "type": "uint256"
        }
      ],
      "name": "Approval",
      "type": "event"
    },
    {
      "anonymous": false,
      "inputs": [
        {
          "indexed": true,
          "internalType": "address",
          "name": "owner",
          "type": "address"
        },
        {
          "indexed": true,
          "internalType": "address",
          "name": "operator",
          "type": "address"
        },
        {
          "indexed": false,
          "internalType": "bool",
          "name": "approved",
          "type": "bool"
        }
      ],
      "name": "ApprovalForAll",
      "type": "event"
    },
    {
      "anonymous": false,
      "inputs": [
        {
          "indexed": false,
          "internalType": "uint32",
          "name": "carTokenId",
          "type": "uint32"
        },
        {
          "indexed": false,
          "internalType": "address",
          "name": "borrower",
          "type": "address"
        },
        {
          "indexed": false,
          "internalType": "uint256",
          "name": "startTime",
          "type": "uint256"
        },
        {
          "indexed": false,
          "internalType": "uint256",
          "name": "duration",
          "type": "uint256"
        }
      ],
      "name": "CarBorrowed",
      "type": "event"
    },
    {
      "anonymous": false,
      "inputs": [
        {
          "indexed": false,
          "internalType": "uint256",
          "name": "carTokenId",
          "type": "uint256"
        },
        {
          "indexed": false,
          "internalType": "address",
          "name": "borrower",
          "type": "address"
        },
        {
          "indexed": false,
          "internalType": "uint256",
          "name": "cancelTime",
          "type": "uint256"
        }
      ],
      "name": "CarReturn",
      "type": "event"
    },
    {
      "anonymous": false,
      "inputs": [
        {
          "indexed": true,
          "internalType": "address",
          "name": "from",
          "type": "address"
        },
        {
          "indexed": true,
          "internalType": "address",
          "name": "to",
          "type": "address"
        },
        {
          "indexed": true,
          "internalType": "uint256",
          "name": "tokenId",
          "type": "uint256"
        }
      ],
      "name": "Transfer",
      "type": "event"
    },
    {
      "inputs": [
        {
          "internalType": "uint32",
          "name": "carTokenId",
          "type": "uint32"
        },
        {
          "internalType": "uint256",
          "name": "lease_time",
          "type": "uint256"
        }
      ],
      "name": "BorrowCar",
      "outputs": [],
      "stateMutability": "nonpayable",
      "type": "function"
    },
    {
      "inputs": [
        {
          "internalType": "uint256",
          "name": "carTokenId",
          "type": "uint256"
        }
      ],
      "name": "CarBorrowerUntilof",
      "outputs": [
        {
          "internalType": "uint256",
          "name": "",
          "type": "uint256"
        }
      ],
      "stateMutability": "view",
      "type": "function"
    },
    {
      "inputs": [
        {
          "internalType": "uint256",
          "name": "carTokenId",
          "type": "uint256"
        }
      ],
      "name": "CarBorrowerof",
      "outputs": [
        {
          "internalType": "address",
          "name": "",
          "type": "address"
        }
      ],
      "stateMutability": "view",
      "type": "function"
    },
    {
      "inputs": [
        {
          "internalType": "uint256",
          "name": "carTokenId",
          "type": "uint256"
        }
      ],
      "name": "CarOwnerof",
      "outputs": [
        {
          "internalType": "address",
          "name": "",
          "type": "address"
        }
      ],
      "stateMutability": "view",
      "type": "function"
    },
    {
      "inputs": [],
      "name": "Init",
      "outputs": [],
      "stateMutability": "nonpayable",
      "type": "function"
    },
    {
      "inputs": [],
      "name": "MyCarList",
      "outputs": [
        {
          "internalType": "uint256[]",
          "name": "",
          "type": "uint256[]"
        }
      ],
      "stateMutability": "view",
      "type": "function"
    },
    {
      "inputs": [],
      "name": "MyborrowedCarList",
      "outputs": [
        {
          "internalType": "uint256[]",
          "name": "",
          "type": "uint256[]"
        }
      ],
      "stateMutability": "view",
      "type": "function"
    },
    {
      "inputs": [
        {
          "internalType": "uint256",
          "name": "carTokenId",
          "type": "uint256"
        }
      ],
      "name": "ReturnCar",
      "outputs": [],
      "stateMutability": "nonpayable",
      "type": "function"
    },
    {
      "inputs": [],
      "name": "UnBorrowCarList",
      "outputs": [
        {
          "internalType": "uint256[]",
          "name": "",
          "type": "uint256[]"
        }
      ],
      "stateMutability": "view",
      "type": "function"
    },
    {
      "inputs": [
        {
          "internalType": "address",
          "name": "to",
          "type": "address"
        },
        {
          "internalType": "uint256",
          "name": "tokenId",
          "type": "uint256"
        }
      ],
      "name": "approve",
      "outputs": [],
      "stateMutability": "nonpayable",
      "type": "function"
    },
    {
      "inputs": [
        {
          "internalType": "address",
          "name": "owner",
          "type": "address"
        }
      ],
      "name": "balanceOf",
      "outputs": [
        {
          "internalType": "uint256",
          "name": "",
          "type": "uint256"
        }
      ],
      "stateMutability": "view",
      "type": "function"
    },
    {
      "inputs": [
        {
          "internalType": "uint256",
          "name": "",
          "type": "uint256"
        }
      ],
      "name": "cars",
      "outputs": [
        {
          "internalType": "address",
          "name": "borrower",
          "type": "address"
        },
        {
          "internalType": "uint256",
          "name": "borrowUntil",
          "type": "uint256"
        }
      ],
      "stateMutability": "view",
      "type": "function"
    },
    {
      "inputs": [
        {
          "internalType": "uint256",
          "name": "tokenId",
          "type": "uint256"
        }
      ],
      "name": "getApproved",
      "outputs": [
        {
          "internalType": "address",
          "name": "",
          "type": "address"
        }
      ],
      "stateMutability": "view",
      "type": "function"
    },
    {
      "inputs": [
        {
          "internalType": "address",
          "name": "owner",
          "type": "address"
        },
        {
          "internalType": "address",
          "name": "operator",
          "type": "address"
        }
      ],
      "name": "isApprovedForAll",
      "outputs": [
        {
          "internalType": "bool",
          "name": "",
          "type": "bool"
        }
      ],
      "stateMutability": "view",
      "type": "function"
    },
    {
      "inputs": [],
      "name": "name",
      "outputs": [
        {
          "internalType": "string",
          "name": "",
          "type": "string"
        }
      ],
      "stateMutability": "view",
      "type": "function"
    },
    {
      "inputs": [
        {
          "internalType": "uint256",
          "name": "tokenId",
          "type": "uint256"
        }
      ],
      "name": "ownerOf",
      "outputs": [
        {
          "internalType": "address",
          "name": "",
          "type": "address"
        }
      ],
      "stateMutability": "view",
      "type": "function"
    },
    {
      "inputs": [
        {
          "internalType": "address",
          "name": "from",
          "type": "address"
        },
        {
          "internalType": "address",
          "name": "to",
          "type": "address"
        },
        {
          "internalType": "uint256",
          "name": "tokenId",
          "type": "uint256"
        }
      ],
      "name": "safeTransferFrom",
      "outputs": [],
      "stateMutability": "nonpayable",
      "type": "function"
    },
    {
      "inputs": [
        {
          "internalType": "address",
          "name": "from",
          "type": "address"
        },
        {
          "internalType": "address",
          "name": "to",
          "type": "address"
        },
        {
          "internalType": "uint256",
          "name": "tokenId",
          "type": "uint256"
        },
        {
          "internalType": "bytes",
          "name": "data",
          "type": "bytes"
        }
      ],
      "name": "safeTransferFrom",
      "outputs": [],
      "stateMutability": "nonpayable",
      "type": "function"
    },
    {
      "inputs": [
        {
          "internalType": "address",
          "name": "operator",
          "type": "address"
        },
        {
          "internalType": "bool",
          "name": "approved",
          "type": "bool"
        }
      ],
      "name": "setApprovalForAll",
      "outputs": [],
      "stateMutability": "nonpayable",
      "type": "function"
    },
    {
      "inputs": [
        {
          "internalType": "bytes4",
          "name": "interfaceId",
          "type": "bytes4"
        }
      ],
      "name": "supportsInterface",
      "outputs": [
        {
          "internalType": "bool",
          "name": "",
          "type": "bool"
        }
      ],
      "stateMutability": "view",
      "type": "function"
    },
    {
      "inputs": [],
      "name": "symbol",
      "outputs": [
        {
          "internalType": "string",
          "name": "",
          "type": "string"
        }
      ],
      "stateMutability": "view",
      "type": "function"
    },
    {
      "inputs": [
        {
          "internalType": "uint256",
          "name": "tokenId",
          "type": "uint256"
        }
      ],
      "name": "tokenURI",
      "outputs": [
        {
          "internalType": "string",
          "name": "",
          "type": "string"
        }
      ],
      "stateMutability": "view",
      "type": "function"
    },
    {
      "inputs": [
        {
          "internalType": "address",
          "name": "from",
          "type": "address"
        },
        {
          "internalType": "address",
          "name": "to",
          "type": "address"
        },
        {
          "internalType": "uint256",
          "name": "tokenId",
          "type": "uint256"
        }
      ],
      "name": "transferFrom",
      "outputs": [],
      "stateMutability": "nonpayable",
      "type": "function"
    }
  ],
  "bytecode": "0x60806040523480156200001157600080fd5b506040518060400160405280600d81526020017f426f72726f77596f7572436172000000000000000000000000000000000000008152506040518060400160405280600481526020017f636172730000000000000000000000000000000000000000000000000000000081525081600090816200008f91906200032c565b508060019081620000a191906200032c565b505050600060078190555062000413565b600081519050919050565b7f4e487b7100000000000000000000000000000000000000000000000000000000600052604160045260246000fd5b7f4e487b7100000000000000000000000000000000000000000000000000000000600052602260045260246000fd5b600060028204905060018216806200013457607f821691505b6020821081036200014a5762000149620000ec565b5b50919050565b60008190508160005260206000209050919050565b60006020601f8301049050919050565b600082821b905092915050565b600060088302620001b47fffffffffffffffffffffffffffffffffffffffffffffffffffffffffffffffff8262000175565b620001c0868362000175565b95508019841693508086168417925050509392505050565b6000819050919050565b6000819050919050565b60006200020d620002076200020184620001d8565b620001e2565b620001d8565b9050919050565b6000819050919050565b6200022983620001ec565b62000241620002388262000214565b84845462000182565b825550505050565b600090565b6200025862000249565b620002658184846200021e565b505050565b5b818110156200028d57620002816000826200024e565b6001810190506200026b565b5050565b601f821115620002dc57620002a68162000150565b620002b18462000165565b81016020851015620002c1578190505b620002d9620002d08562000165565b8301826200026a565b50505b505050565b600082821c905092915050565b60006200030160001984600802620002e1565b1980831691505092915050565b60006200031c8383620002ee565b9150826002028217905092915050565b6200033782620000b2565b67ffffffffffffffff811115620003535762000352620000bd565b5b6200035f82546200011b565b6200036c82828562000291565b600060209050601f831160018114620003a457600084156200038f578287015190505b6200039b85826200030e565b8655506200040b565b601f198416620003b48662000150565b60005b82811015620003de57848901518255600182019150602085019450602081019050620003b7565b86831015620003fe5784890151620003fa601f891682620002ee565b8355505b6001600288020188555050505b505050505050565b612eb480620004236000396000f3fe608060405234801561001057600080fd5b506004361061014d5760003560e01c80636e2bb15d116100c3578063b88d4fde1161007c578063b88d4fde146103b0578063c87b56dd146103cc578063df79c3a4146103fc578063e985e9c514610418578063f7746e3614610448578063f86f524b146104795761014d565b80636e2bb15d146102dc57806370a082311461030c5780637cdbd8031461033c57806395d89b4114610358578063a22cb46514610376578063a887f872146103925761014d565b80633ffe251a116101155780633ffe251a1461020857806342842e0e1461023857806347fa62d11461025457806357a86f7d14610272578063624a05d61461027c5780636352211e146102ac5761014d565b806301ffc9a71461015257806306fdde0314610182578063081812fc146101a0578063095ea7b3146101d057806323b872dd146101ec575b600080fd5b61016c600480360381019061016791906121b3565b610497565b60405161017991906121fb565b60405180910390f35b61018a610579565b60405161019791906122a6565b60405180910390f35b6101ba60048036038101906101b591906122fe565b61060b565b6040516101c7919061236c565b60405180910390f35b6101ea60048036038101906101e591906123b3565b610627565b005b610206600480360381019061020191906123f3565b61063d565b005b610222600480360381019061021d91906122fe565b61073f565b60405161022f919061236c565b60405180910390f35b610252600480360381019061024d91906123f3565b610751565b005b61025c610771565b6040516102699190612504565b60405180910390f35b61027a61093e565b005b610296600480360381019061029191906122fe565b610a69565b6040516102a39190612535565b60405180910390f35b6102c660048036038101906102c191906122fe565b610a89565b6040516102d3919061236c565b60405180910390f35b6102f660048036038101906102f191906122fe565b610a9b565b604051610303919061236c565b60405180910390f35b61032660048036038101906103219190612550565b610b02565b6040516103339190612535565b60405180910390f35b610356600480360381019061035191906125b9565b610bbc565b005b610360610d85565b60405161036d91906122a6565b60405180910390f35b610390600480360381019061038b9190612625565b610e17565b005b61039a610e2d565b6040516103a79190612504565b60405180910390f35b6103ca60048036038101906103c5919061279a565b610fcc565b005b6103e660048036038101906103e191906122fe565b610fe9565b6040516103f391906122a6565b60405180910390f35b610416600480360381019061041191906122fe565b611052565b005b610432600480360381019061042d919061281d565b6111e8565b60405161043f91906121fb565b60405180910390f35b610462600480360381019061045d91906122fe565b61127c565b60405161047092919061285d565b60405180910390f35b6104816112c0565b60405161048e9190612504565b60405180910390f35b60007f80ac58cd000000000000000000000000000000000000000000000000000000007bffffffffffffffffffffffffffffffffffffffffffffffffffffffff1916827bffffffffffffffffffffffffffffffffffffffffffffffffffffffff1916148061056257507f5b5e139f000000000000000000000000000000000000000000000000000000007bffffffffffffffffffffffffffffffffffffffffffffffffffffffff1916827bffffffffffffffffffffffffffffffffffffffffffffffffffffffff1916145b806105725750610571826113cc565b5b9050919050565b606060008054610588906128b5565b80601f01602080910402602001604051908101604052809291908181526020018280546105b4906128b5565b80156106015780601f106105d657610100808354040283529160200191610601565b820191906000526020600020905b8154815290600101906020018083116105e457829003601f168201915b5050505050905090565b600061061682611436565b50610620826114be565b9050919050565b61063982826106346114fb565b611503565b5050565b600073ffffffffffffffffffffffffffffffffffffffff168273ffffffffffffffffffffffffffffffffffffffff16036106af5760006040517f64a0ae920000000000000000000000000000000000000000000000000000000081526004016106a6919061236c565b60405180910390fd5b60006106c383836106be6114fb565b611515565b90508373ffffffffffffffffffffffffffffffffffffffff168173ffffffffffffffffffffffffffffffffffffffff1614610739578382826040517f64283d7b000000000000000000000000000000000000000000000000000000008152600401610730939291906128e6565b60405180910390fd5b50505050565b600061074a8261172f565b9050919050565b61076c83838360405180602001604052806000815250610fcc565b505050565b6060600060075467ffffffffffffffff8111156107915761079061266f565b5b6040519080825280602002602001820160405280156107bf5781602001602082028036833780820191505090505b5090506000805b60075481101561088e57600073ffffffffffffffffffffffffffffffffffffffff166107f182610a9b565b73ffffffffffffffffffffffffffffffffffffffff160361083d57808383806108199061294c565b94508151811061082c5761082b612994565b5b60200260200101818152505061087b565b4261084782610a69565b101561087a578083838061085a9061294c565b94508151811061086d5761086c612994565b5b6020026020010181815250505b5b80806108869061294c565b9150506107c6565b5060008167ffffffffffffffff8111156108ab576108aa61266f565b5b6040519080825280602002602001820160405280156108d95781602001602082028036833780820191505090505b50905060005b82811015610934578381815181106108fa576108f9612994565b5b602002602001015182828151811061091557610914612994565b5b602002602001018181525050808061092c9061294c565b9150506108df565b5080935050505090565b60001515600860003373ffffffffffffffffffffffffffffffffffffffff1673ffffffffffffffffffffffffffffffffffffffff16815260200190815260200160002060009054906101000a900460ff161515146109d1576040517f08c379a00000000000000000000000000000000000000000000000000000000081526004016109c890612a35565b60405180910390fd5b6109dd3360075461176c565b6109f53360016007546109f09190612a55565b61176c565b600260076000828254610a089190612a55565b925050819055506001600860003373ffffffffffffffffffffffffffffffffffffffff1673ffffffffffffffffffffffffffffffffffffffff16815260200190815260200160002060006101000a81548160ff021916908315150217905550565b600060066000838152602001908152602001600020600101549050919050565b6000610a9482611436565b9050919050565b600042600660008481526020019081526020016000206001015410610af8576006600083815260200190815260200160002060000160009054906101000a900473ffffffffffffffffffffffffffffffffffffffff169050610afd565b600090505b919050565b60008073ffffffffffffffffffffffffffffffffffffffff168273ffffffffffffffffffffffffffffffffffffffff1603610b755760006040517f89c62b64000000000000000000000000000000000000000000000000000000008152600401610b6c919061236c565b60405180910390fd5b600360008373ffffffffffffffffffffffffffffffffffffffff1673ffffffffffffffffffffffffffffffffffffffff168152602001908152602001600020549050919050565b6000610bcd8363ffffffff1661172f565b9050600073ffffffffffffffffffffffffffffffffffffffff168173ffffffffffffffffffffffffffffffffffffffff1603610c3e576040517f08c379a0000000000000000000000000000000000000000000000000000000008152600401610c3590612afb565b60405180910390fd5b600073ffffffffffffffffffffffffffffffffffffffff16610c658463ffffffff16610a9b565b73ffffffffffffffffffffffffffffffffffffffff1614610cbb576040517f08c379a0000000000000000000000000000000000000000000000000000000008152600401610cb290612b8d565b60405180910390fd5b6000610e1083610ccb9190612bad565b42610cd69190612a55565b90506000600660008663ffffffff1681526020019081526020016000209050338160000160006101000a81548173ffffffffffffffffffffffffffffffffffffffff021916908373ffffffffffffffffffffffffffffffffffffffff1602179055508181600101819055507f7451ef7dffbc2d6f0fa7de7269edbe0df1310c12f853bb3899f0c2bf7646344085334285604051610d769493929190612bfe565b60405180910390a15050505050565b606060018054610d94906128b5565b80601f0160208091040260200160405190810160405280929190818152602001828054610dc0906128b5565b8015610e0d5780601f10610de257610100808354040283529160200191610e0d565b820191906000526020600020905b815481529060010190602001808311610df057829003601f168201915b5050505050905090565b610e29610e226114fb565b838361178a565b5050565b6060600060075467ffffffffffffffff811115610e4d57610e4c61266f565b5b604051908082528060200260200182016040528015610e7b5781602001602082028036833780820191505090505b5090506000805b600754811015610f1c573373ffffffffffffffffffffffffffffffffffffffff16610eac82610a9b565b73ffffffffffffffffffffffffffffffffffffffff16148015610ed7575042610ed482610a69565b10155b15610f095780838380610ee99061294c565b945081518110610efc57610efb612994565b5b6020026020010181815250505b8080610f149061294c565b915050610e82565b5060008167ffffffffffffffff811115610f3957610f3861266f565b5b604051908082528060200260200182016040528015610f675781602001602082028036833780820191505090505b50905060005b82811015610fc257838181518110610f8857610f87612994565b5b6020026020010151828281518110610fa357610fa2612994565b5b6020026020010181815250508080610fba9061294c565b915050610f6d565b5080935050505090565b610fd784848461063d565b610fe3848484846118f9565b50505050565b6060610ff482611436565b506000610fff611ab0565b9050600081511161101f576040518060200160405280600081525061104a565b8061102984611ac7565b60405160200161103a929190612c7f565b6040516020818303038152906040525b915050919050565b600061105d8261172f565b9050600073ffffffffffffffffffffffffffffffffffffffff168173ffffffffffffffffffffffffffffffffffffffff16036110ce576040517f08c379a00000000000000000000000000000000000000000000000000000000081526004016110c590612afb565b60405180910390fd5b6110d782610a9b565b73ffffffffffffffffffffffffffffffffffffffff163373ffffffffffffffffffffffffffffffffffffffff1614611144576040517f08c379a000000000000000000000000000000000000000000000000000000000815260040161113b90612d15565b60405180910390fd5b600060066000848152602001908152602001600020905060008160000160006101000a81548173ffffffffffffffffffffffffffffffffffffffff021916908373ffffffffffffffffffffffffffffffffffffffff1602179055504281600101819055507f78d99d94b869b1a77cf1235ba4514eb4ae35af679d2d54ddfd73909179ab216d8333426040516111db93929190612d35565b60405180910390a1505050565b6000600560008473ffffffffffffffffffffffffffffffffffffffff1673ffffffffffffffffffffffffffffffffffffffff16815260200190815260200160002060008373ffffffffffffffffffffffffffffffffffffffff1673ffffffffffffffffffffffffffffffffffffffff16815260200190815260200160002060009054906101000a900460ff16905092915050565b60066020528060005260406000206000915090508060000160009054906101000a900473ffffffffffffffffffffffffffffffffffffffff16908060010154905082565b606060006112cd33610b02565b905060008167ffffffffffffffff8111156112eb576112ea61266f565b5b6040519080825280602002602001820160405280156113195781602001602082028036833780820191505090505b5090506000820361132e5780925050506113c9565b6000805b6007548110156113c1573373ffffffffffffffffffffffffffffffffffffffff1661135c8261172f565b73ffffffffffffffffffffffffffffffffffffffff16036113ae578083838151811061138b5761138a612994565b5b60200260200101818152505081806113a29061294c565b925050838203156113c1575b80806113b99061294c565b915050611332565b508193505050505b90565b60007f01ffc9a7000000000000000000000000000000000000000000000000000000007bffffffffffffffffffffffffffffffffffffffffffffffffffffffff1916827bffffffffffffffffffffffffffffffffffffffffffffffffffffffff1916149050919050565b6000806114428361172f565b9050600073ffffffffffffffffffffffffffffffffffffffff168173ffffffffffffffffffffffffffffffffffffffff16036114b557826040517f7e2732890000000000000000000000000000000000000000000000000000000081526004016114ac9190612535565b60405180910390fd5b80915050919050565b60006004600083815260200190815260200160002060009054906101000a900473ffffffffffffffffffffffffffffffffffffffff169050919050565b600033905090565b6115108383836001611b95565b505050565b6000806115218461172f565b9050600073ffffffffffffffffffffffffffffffffffffffff168373ffffffffffffffffffffffffffffffffffffffff161461156357611562818486611d5a565b5b600073ffffffffffffffffffffffffffffffffffffffff168173ffffffffffffffffffffffffffffffffffffffff16146115f4576115a5600085600080611b95565b6001600360008373ffffffffffffffffffffffffffffffffffffffff1673ffffffffffffffffffffffffffffffffffffffff168152602001908152602001600020600082825403925050819055505b600073ffffffffffffffffffffffffffffffffffffffff168573ffffffffffffffffffffffffffffffffffffffff1614611677576001600360008773ffffffffffffffffffffffffffffffffffffffff1673ffffffffffffffffffffffffffffffffffffffff168152602001908152602001600020600082825401925050819055505b846002600086815260200190815260200160002060006101000a81548173ffffffffffffffffffffffffffffffffffffffff021916908373ffffffffffffffffffffffffffffffffffffffff160217905550838573ffffffffffffffffffffffffffffffffffffffff168273ffffffffffffffffffffffffffffffffffffffff167fddf252ad1be2c89b69c2b068fc378daa952ba7f163c4a11628f55a4df523b3ef60405160405180910390a4809150509392505050565b60006002600083815260200190815260200160002060009054906101000a900473ffffffffffffffffffffffffffffffffffffffff169050919050565b611786828260405180602001604052806000815250611e1e565b5050565b600073ffffffffffffffffffffffffffffffffffffffff168273ffffffffffffffffffffffffffffffffffffffff16036117fb57816040517f5b08ba180000000000000000000000000000000000000000000000000000000081526004016117f2919061236c565b60405180910390fd5b80600560008573ffffffffffffffffffffffffffffffffffffffff1673ffffffffffffffffffffffffffffffffffffffff16815260200190815260200160002060008473ffffffffffffffffffffffffffffffffffffffff1673ffffffffffffffffffffffffffffffffffffffff16815260200190815260200160002060006101000a81548160ff0219169083151502179055508173ffffffffffffffffffffffffffffffffffffffff168373ffffffffffffffffffffffffffffffffffffffff167f17307eab39ab6107e8899845ad3d59bd9653f200f220920489ca2b5937696c31836040516118ec91906121fb565b60405180910390a3505050565b60008373ffffffffffffffffffffffffffffffffffffffff163b1115611aaa578273ffffffffffffffffffffffffffffffffffffffff1663150b7a0261193d6114fb565b8685856040518563ffffffff1660e01b815260040161195f9493929190612dc1565b6020604051808303816000875af192505050801561199b57506040513d601f19601f820116820180604052508101906119989190612e22565b60015b611a1f573d80600081146119cb576040519150601f19603f3d011682016040523d82523d6000602084013e6119d0565b606091505b506000815103611a1757836040517f64a0ae92000000000000000000000000000000000000000000000000000000008152600401611a0e919061236c565b60405180910390fd5b805181602001fd5b63150b7a0260e01b7bffffffffffffffffffffffffffffffffffffffffffffffffffffffff1916817bffffffffffffffffffffffffffffffffffffffffffffffffffffffff191614611aa857836040517f64a0ae92000000000000000000000000000000000000000000000000000000008152600401611a9f919061236c565b60405180910390fd5b505b50505050565b606060405180602001604052806000815250905090565b606060006001611ad684611e3a565b01905060008167ffffffffffffffff811115611af557611af461266f565b5b6040519080825280601f01601f191660200182016040528015611b275781602001600182028036833780820191505090505b509050600082602001820190505b600115611b8a578080600190039150507f3031323334353637383961626364656600000000000000000000000000000000600a86061a8153600a8581611b7e57611b7d612e4f565b5b04945060008503611b35575b819350505050919050565b8080611bce5750600073ffffffffffffffffffffffffffffffffffffffff168273ffffffffffffffffffffffffffffffffffffffff1614155b15611d02576000611bde84611436565b9050600073ffffffffffffffffffffffffffffffffffffffff168373ffffffffffffffffffffffffffffffffffffffff1614158015611c4957508273ffffffffffffffffffffffffffffffffffffffff168173ffffffffffffffffffffffffffffffffffffffff1614155b8015611c5c5750611c5a81846111e8565b155b15611c9e57826040517fa9fbf51f000000000000000000000000000000000000000000000000000000008152600401611c95919061236c565b60405180910390fd5b8115611d0057838573ffffffffffffffffffffffffffffffffffffffff168273ffffffffffffffffffffffffffffffffffffffff167f8c5be1e5ebec7d5bd14f71427d1e84f3dd0314c0f7b2291e5b200ac8c7c3b92560405160405180910390a45b505b836004600085815260200190815260200160002060006101000a81548173ffffffffffffffffffffffffffffffffffffffff021916908373ffffffffffffffffffffffffffffffffffffffff16021790555050505050565b611d65838383611f8d565b611e1957600073ffffffffffffffffffffffffffffffffffffffff168373ffffffffffffffffffffffffffffffffffffffff1603611dda57806040517f7e273289000000000000000000000000000000000000000000000000000000008152600401611dd19190612535565b60405180910390fd5b81816040517f177e802f000000000000000000000000000000000000000000000000000000008152600401611e1092919061285d565b60405180910390fd5b505050565b611e28838361204e565b611e3560008484846118f9565b505050565b600080600090507a184f03e93ff9f4daa797ed6e38ed64bf6a1f0100000000000000008310611e98577a184f03e93ff9f4daa797ed6e38ed64bf6a1f0100000000000000008381611e8e57611e8d612e4f565b5b0492506040810190505b6d04ee2d6d415b85acef81000000008310611ed5576d04ee2d6d415b85acef81000000008381611ecb57611eca612e4f565b5b0492506020810190505b662386f26fc100008310611f0457662386f26fc100008381611efa57611ef9612e4f565b5b0492506010810190505b6305f5e1008310611f2d576305f5e1008381611f2357611f22612e4f565b5b0492506008810190505b6127108310611f52576127108381611f4857611f47612e4f565b5b0492506004810190505b60648310611f755760648381611f6b57611f6a612e4f565b5b0492506002810190505b600a8310611f84576001810190505b80915050919050565b60008073ffffffffffffffffffffffffffffffffffffffff168373ffffffffffffffffffffffffffffffffffffffff161415801561204557508273ffffffffffffffffffffffffffffffffffffffff168473ffffffffffffffffffffffffffffffffffffffff161480612006575061200584846111e8565b5b8061204457508273ffffffffffffffffffffffffffffffffffffffff1661202c836114be565b73ffffffffffffffffffffffffffffffffffffffff16145b5b90509392505050565b600073ffffffffffffffffffffffffffffffffffffffff168273ffffffffffffffffffffffffffffffffffffffff16036120c05760006040517f64a0ae920000000000000000000000000000000000000000000000000000000081526004016120b7919061236c565b60405180910390fd5b60006120ce83836000611515565b9050600073ffffffffffffffffffffffffffffffffffffffff168173ffffffffffffffffffffffffffffffffffffffff16146121425760006040517f73c6ac6e000000000000000000000000000000000000000000000000000000008152600401612139919061236c565b60405180910390fd5b505050565b6000604051905090565b600080fd5b600080fd5b60007fffffffff0000000000000000000000000000000000000000000000000000000082169050919050565b6121908161215b565b811461219b57600080fd5b50565b6000813590506121ad81612187565b92915050565b6000602082840312156121c9576121c8612151565b5b60006121d78482850161219e565b91505092915050565b60008115159050919050565b6121f5816121e0565b82525050565b600060208201905061221060008301846121ec565b92915050565b600081519050919050565b600082825260208201905092915050565b60005b83811015612250578082015181840152602081019050612235565b60008484015250505050565b6000601f19601f8301169050919050565b600061227882612216565b6122828185612221565b9350612292818560208601612232565b61229b8161225c565b840191505092915050565b600060208201905081810360008301526122c0818461226d565b905092915050565b6000819050919050565b6122db816122c8565b81146122e657600080fd5b50565b6000813590506122f8816122d2565b92915050565b60006020828403121561231457612313612151565b5b6000612322848285016122e9565b91505092915050565b600073ffffffffffffffffffffffffffffffffffffffff82169050919050565b60006123568261232b565b9050919050565b6123668161234b565b82525050565b6000602082019050612381600083018461235d565b92915050565b6123908161234b565b811461239b57600080fd5b50565b6000813590506123ad81612387565b92915050565b600080604083850312156123ca576123c9612151565b5b60006123d88582860161239e565b92505060206123e9858286016122e9565b9150509250929050565b60008060006060848603121561240c5761240b612151565b5b600061241a8682870161239e565b935050602061242b8682870161239e565b925050604061243c868287016122e9565b9150509250925092565b600081519050919050565b600082825260208201905092915050565b6000819050602082019050919050565b61247b816122c8565b82525050565b600061248d8383612472565b60208301905092915050565b6000602082019050919050565b60006124b182612446565b6124bb8185612451565b93506124c683612462565b8060005b838110156124f75781516124de8882612481565b97506124e983612499565b9250506001810190506124ca565b5085935050505092915050565b6000602082019050818103600083015261251e81846124a6565b905092915050565b61252f816122c8565b82525050565b600060208201905061254a6000830184612526565b92915050565b60006020828403121561256657612565612151565b5b60006125748482850161239e565b91505092915050565b600063ffffffff82169050919050565b6125968161257d565b81146125a157600080fd5b50565b6000813590506125b38161258d565b92915050565b600080604083850312156125d0576125cf612151565b5b60006125de858286016125a4565b92505060206125ef858286016122e9565b9150509250929050565b612602816121e0565b811461260d57600080fd5b50565b60008135905061261f816125f9565b92915050565b6000806040838503121561263c5761263b612151565b5b600061264a8582860161239e565b925050602061265b85828601612610565b9150509250929050565b600080fd5b600080fd5b7f4e487b7100000000000000000000000000000000000000000000000000000000600052604160045260246000fd5b6126a78261225c565b810181811067ffffffffffffffff821117156126c6576126c561266f565b5b80604052505050565b60006126d9612147565b90506126e5828261269e565b919050565b600067ffffffffffffffff8211156127055761270461266f565b5b61270e8261225c565b9050602081019050919050565b82818337600083830152505050565b600061273d612738846126ea565b6126cf565b9050828152602081018484840111156127595761275861266a565b5b61276484828561271b565b509392505050565b600082601f83011261278157612780612665565b5b813561279184826020860161272a565b91505092915050565b600080600080608085870312156127b4576127b3612151565b5b60006127c28782880161239e565b94505060206127d38782880161239e565b93505060406127e4878288016122e9565b925050606085013567ffffffffffffffff81111561280557612804612156565b5b6128118782880161276c565b91505092959194509250565b6000806040838503121561283457612833612151565b5b60006128428582860161239e565b92505060206128538582860161239e565b9150509250929050565b6000604082019050612872600083018561235d565b61287f6020830184612526565b9392505050565b7f4e487b7100000000000000000000000000000000000000000000000000000000600052602260045260246000fd5b600060028204905060018216806128cd57607f821691505b6020821081036128e0576128df612886565b5b50919050565b60006060820190506128fb600083018661235d565b6129086020830185612526565b612915604083018461235d565b949350505050565b7f4e487b7100000000000000000000000000000000000000000000000000000000600052601160045260246000fd5b6000612957826122c8565b91507fffffffffffffffffffffffffffffffffffffffffffffffffffffffffffffffff82036129895761298861291d565b5b600182019050919050565b7f4e487b7100000000000000000000000000000000000000000000000000000000600052603260045260246000fd5b7f426f72726f77596f75724361723a207573657220686173206361727320616c7260008201527f6561647921000000000000000000000000000000000000000000000000000000602082015250565b6000612a1f602583612221565b9150612a2a826129c3565b604082019050919050565b60006020820190508181036000830152612a4e81612a12565b9050919050565b6000612a60826122c8565b9150612a6b836122c8565b9250828201905080821115612a8357612a8261291d565b5b92915050565b7f426f72726f77596f75724361723a205468697320746f6b656e20646f65736e2760008201527f7420657869737421000000000000000000000000000000000000000000000000602082015250565b6000612ae5602883612221565b9150612af082612a89565b604082019050919050565b60006020820190508181036000830152612b1481612ad8565b9050919050565b7f426f72726f77596f75724361723a206361722068617320616c7265616479206260008201527f65656e20626f72726f7765640000000000000000000000000000000000000000602082015250565b6000612b77602c83612221565b9150612b8282612b1b565b604082019050919050565b60006020820190508181036000830152612ba681612b6a565b9050919050565b6000612bb8826122c8565b9150612bc3836122c8565b9250828202612bd1816122c8565b91508282048414831517612be857612be761291d565b5b5092915050565b612bf88161257d565b82525050565b6000608082019050612c136000830187612bef565b612c20602083018661235d565b612c2d6040830185612526565b612c3a6060830184612526565b95945050505050565b600081905092915050565b6000612c5982612216565b612c638185612c43565b9350612c73818560208601612232565b80840191505092915050565b6000612c8b8285612c4e565b9150612c978284612c4e565b91508190509392505050565b7f426f72726f77596f75724361723a206f7065726174696f6e2063616c6c65722060008201527f6973206e6f7420626f72726f7765720000000000000000000000000000000000602082015250565b6000612cff602f83612221565b9150612d0a82612ca3565b604082019050919050565b60006020820190508181036000830152612d2e81612cf2565b9050919050565b6000606082019050612d4a6000830186612526565b612d57602083018561235d565b612d646040830184612526565b949350505050565b600081519050919050565b600082825260208201905092915050565b6000612d9382612d6c565b612d9d8185612d77565b9350612dad818560208601612232565b612db68161225c565b840191505092915050565b6000608082019050612dd6600083018761235d565b612de3602083018661235d565b612df06040830185612526565b8181036060830152612e028184612d88565b905095945050505050565b600081519050612e1c81612187565b92915050565b600060208284031215612e3857612e37612151565b5b6000612e4684828501612e0d565b91505092915050565b7f4e487b7100000000000000000000000000000000000000000000000000000000600052601260045260246000fdfea2646970667358221220ef422ef20f2421d5ab6bbcde51ffbae5183b3b138cc074a3e1ef737333eea30264736f6c63430008140033",
  "linkReferences": {},
  "deployedLinkReferences": {}
}